:101ED00000FE8242A29E8A82868AB26202FE0000D0
:101EE000007F40407F40404040407F40407F0000B6
:101EF000808080BFA5A5A53FA5A5A5BF8080800047
:101F00007F24243F24247F007F24243F24247F0037
:0721150044029F00000000DE
:10206F00C2C9E4FDC2A4EF30E704D2C88002C2C8DF
:10207F00D2A4EF7801088005C333CE33CED8F9FF51
:05208F000DEDB408DFB7
:012094002229
:0E1F5000E0FBA3E0FAA3E0F91203B6FF7E0067
:101F5E00D2C9E4FDC2A4EF30E704D2C88002C2C8E1
:101F6E00D2A4EF7801088005C333CE33CED8F9FF63
:051F7E000DEDB408DFC9
:011F8300223B
:0720170012206F7F057E001F
:10201E00E4FDFCC3ED9FEE6480F8EC6480985015EF
:10202E00E4FBFA0BBB00010AEB646E4A70F50DBDC2
:05203E0000010C80DE32
:01204300227A
:101D1300C2A6D2A2C2A57F147E0012201ED2A51293
:101D2300201E7FE21220177F2C1220177F2E1220F5
:101D3300177F2F1220177F2312206F7F817E0012BF
:101D4300206F7F2F7E0012206F7FA27E0012206FF4
:101D53007FC87E0012206F7FA07E0012206F7F401D
:0F1D63007E0012206F7FAF7E0012206FD2A6226B
:101F8400AB05AA04EB1B70011AEF24AFFFE43EFE7D
:101F940012206FEAC4F854F0C8EBC4540F48540F2D
:101FA4002410FFE433FE12206F7E00EB540FFF0277
:021FB400206F9C
:101FB600C2A6D2A2E4FCEC24B0FFE433FE12206FEA
:101FC6007F107E0012206FE4FFFE12206FE4FBE418
:101FD600FFFE121F5E0BEBB484F50CECB409D7D2EE
:011FE600A654
:011FE70022D7
:0B1B5500900293EBF0A3EAF0A3E9F08C
:101B6000C2A6E4900298F0A3F0900298E0FEA3E0F1
:101B7000FFC39408EE94005052EF2401FFE43EFEB0
:101B80007D017C00121F84E4900296F0A3F0900285
:101B900093121F50900294E475F0011204669002B3
:101BA00097E004F07006900296E004F0C39002976C
:101BB000E09480900296E0940040D3900299E00473
:0D1BC000F070A6900298E004F0809ED2A67E
:011BCD0022F5
:10178C0090024AEEF0A3EFF0A3ECF0A3EDF0A3EB84
:07179C00F0A3EAF0A3E9F05D
:1017A300C2A6D2A2E4900253F0A3F0900253E0FE4B
:1017B300A3E0FFC39402EE9400505B90024BE02F32
:1017C300FF90024AE03EFE90024CE0FCA3E0FD12D3
:1017D3001F84E4900251F0A3F090024E121F509028
:1017E300024FE475F001120466900252E004F070B7
:1017F30006900251E004F0C3900252E0941090026C
:1018030051E0940040D3900254E004F0709D9002A4
:0818130053E004F08095D2A619
:01181B0022AA
:1019BE0090024AEEF0A3EFF0A3EDF0A3EBF0A3EA52
:0419CE00F0A3E9F0A9
:1019D200C2A6E4900252F0A3F0900252E0FEA3E00D
:1019E200FFC39402EE9400505A90024BE02FFF90F6
:1019F200024AE03EFE90024CE0FD7C00121F84E4AD
:101A0200900250F0A3F090024D121F5090024EE44B
:101A120075F001120466900251E004F07006900223
:101A220050E004F0C3900251E09408900250E09418
:101A32000040D3900253E004F0709E900252E00402
:051A4200F08096D2A621
:011A4700227C
:081CB00090029AEEF0A3EFF0A0
:101CB800E024AFFFC2A6ED540F1490029EF0AE05CB
:101CC800EEC4540F2410FC7E0012206FAF047E0077
:101CD80012206FE0FF7E0012206FE490029CF0A3B8
:101CE800F0121F58740129F9E43AFA90029DE004B1
:101CF800F0700690029CE004F090029CE0FEA3E0E5
:0A1D0800C39406EE940040D9D2A661
:011D120022AE
:10214D00E4FEEF30E704D2C08002C2C0EF25E0FF0D
:09215D00C2A1D2A10EEEB408E902
:012166002256
:10213200E4FFD2A1FED2A0C2A1EF25E0FF30A003AE
:0A2142000F8000D2A10EEEB408EBEE
:01214C002270
:021DBD00AC0771
:101DBF00C2A2D2A6C2A17F0312214DAF0412214DA0
:101DCF00AF0512214DAF0312214DE4FD900250E0FB
:101DDF00FFEDC39F501A12213290024DE0FBA3E09A
:101DEF00FAA3E0F98D82758300EF1203FC0D80DCFE
:021DFF00D2A26E
:011E010022BE
:10055300900211EFF0A3EDF0A3EBF0A3EAF0A3E90F
:01056300F0A7
:10056400E4A3F0900213E0FBA3E0FAA3E0F9A3E014
:10057400F5827583001203CFFFD394005003020861
:100584006AEF94B0407CEFD394F75076900216E073
:100594002401FFE433FE8F828E831203CFC394A120
:1005A4004060900213A3A3A3E0F5827583001203B5
:1005B400CF2450FFE434FFFE7C007D5E12041EE471
:1005C400FD90029F1204EC90029FE0F8A3E0F9A3CF
:1005D400E0FAA3E0FBC000C001C002C00390021611
:1005E400E02401FFE433FE900213E0FBA3E0FAA34E
:1005F400E0F98F828E831203CF24ADFFE43402022C
:1006040006A3900213E0FBA3E0FAA3E0F9A3E0F54C
:10061400827583001203CFFFC394A1500302075FC6
:10062400EFD394A3400302075F900216E02401FF76
:10063400E433FE8F828E831203CFC394A15003024E
:10064400075F900213A3A3A3E0F58275830012034E
:10065400CF245FFFE434FFFE7C007D5E12041EE4C1
:10066400FD90029F1204EC90029FE0F8A3E0F9A32E
:10067400E0FAA3E0FBC000C001C002C00390021670
:10068400E02401FFE433FE900213E0FBA3E0FAA3AD
:10069400E0F98F828E831203CF245FFFE434FFFEE0
:1006A400E4FCFDD003D002D001D000EB2FFFEA3EE2
:1006B400FEED39FDEC38FC90029F1204EC90029F91
:1006C400E0FCA3E0FDA3E0FEA3E0FFE47B20FAF955
:1006D400F812047C90029F1204EC90029FA3E0FDA8
:1006E400A3A3E4FFFEE4FC78101204D9900217EFF0
:1006F400F0FA90029FA3A3E0FEA3E4FFE4FDFC78DC
:10070400081204D9900218EFF0F990029FE0FCA3BC
:10071400A3E0FEA3E0FF900219EFF0FBAF02AD01EE
:1007240090024D7401F0A37402F0A3741AF0A37440
:1007340020F0121DBD900211E0FF7E00A3E0FD7CBD
:10074400007B017A02791A12178C900216E02402B7
:10075400F0900212E02410F0020567900213E0FB0F
:10076400A3E0FAA3E0F9A3E0F5827583001203CFB6
:10077400FFC394205003020861EFD3947E40030228
:0207840008610A
:10078600900213A3A3A3E0F5827583001203CF247E
:10079600E0FFE434FFFEE4FCFD90029F1204EC90BF
:1007A600029FE0FCA3E0FDA3E0FEA3E0FFE47B10D4
:1007B600FAF9F812047C90029F1204EC90029FE072
:1007C600FCA3E0FDA3E0FEA3E02480FFEE34CFFE11
:1007D600ED3403FDE43CFC90029F1204EC90029F72
:1007E600A3E0FDA3A3E4FFFEE4FC78101204D99075
:1007F6000217EFF0FA90029FA3A3E0FEA3E4FFE442
:10080600FDFC78081204D9900218EFF0F990029FC7
:10081600E0FCA3A3E0FEA3E0FF900219EFF0FBAF1C
:1008260002AD0190024D7401F0A37402F0A3743A74
:10083600F0A37410F0121DBD900211E0FF7E00A31C
:10084600E0FD7B017A02793A1219BE900216E004A5
:08085600F0900212E02408F00A
:0C085E00020567900216E004F002056736
:01086A00226B
:100E8000900272EFF0A3EDF0A3EBF0A3EAF0A3E978
:010E9000F071
:100E9100E4A3F0900274E0FBA3E0FAA3E0F9A3E07D
:100EA100F5827583001203CFFFD394005003020F24
:100EB100A7EF94205003020F9EEFD3947E400302CC
:020EC1000F9E82
:100EC300900274A3A3A3E0F5827583001203CF24D9
:100ED300E0FFE434FFFEE4FCFD90029F1204EC907B
:100EE300029FE0FCA3E0FDA3E0FEA3E0FFE47B0898
:100EF300FAF9F812047C90029F1204EC90029FE02E
:100F0300FCA3E0FDA3E0FEA3E024C0FFEE34BFFE9C
:100F1300ED3403FDE43CFC90029F1204EC90029F2D
:100F2300A3E0FDA3A3E4FFFEE4FC78101204D99030
:100F33000278EFF0FA90029FA3A3E0FEA3E4FFE49C
:100F4300FDFC78081204D9900279EFF0F990029F22
:100F5300E0FCA3A3E0FEA3E0FF90027AEFF0FBAF77
:100F630002AD0190024D7401F0A37402F0A3747BEF
:100F7300F0A37408F0121DBD900272E0FF7E00A37F
:100F8300E0FD7B017A02797B121CB0900277E004CA
:080F9300F0900273E02406F067
:0C0F9B00020E94900277E004F0020E9425
:010FA7002227
:1020BB00D3EF9400EE940040147D907C01ED1D70E5
:0D20CB00011CED4C70F7EF1F70E61E80E366
:0120D80022E5
:0921E900E4FF00000FEFB40AF955
:0121F20022CA
:0F21C300EF1FAC0670011E4C6004000080F2227A
:1020D900D2CB7F0A7E001221C3C2CB7F147E0012AD
:0E20E90020BBD2CB7F287E001221C3D2CB2297
:101E8C00E4900289F0FB7A0220CB06AF020AEF70D5
:101E9C00F77F1E7E001221C3E4FD30CB010D7A02C8
:101EAC0030CB06AF020AEF70F7EA6401600E9002C5
:101EBC0089E025E0F04DF00BEBB408CAC2CC9002DF
:031ECC0089E0FFAB
:011ECF0022F0
:101A48001220D930CB03021ACF7F0220CB06AE0773
:101A58000FEE70F77F0230CB06AE070FEE70F7126D
:101A68001E8C900208EFF0121E8C900209EFF01203
:101A78001E8C900207EFF0121E8CA907121E8C9084
:101A8800020AEFF0D2CB900209E0FB900208E0FDD9
:101A98002BFF900207E0FC2F2990020BF0ED75F068
:101AA8000AA4FF900263E5F0F0A3EFF0900291EB37
:101AB800F0EC75F00AA4FF900265E5F0F0A3EFF0F2
:071AC800AF0190028EEFF068
:011ACF0022F4
:0B2167007E00122172D2CA7F017E00B0
:0F217200EF1FAC0670011E4C6004000080F222CB
:10204400E4FDD2CAC2CA7FF47E01122172D2CA7FD1
:102054003C7E0012217230CA080DEDB43CF87F00BA
:0A206400227FA47E011221727F0189
:01206E00224F
:021FE800AD0743
:101FEA00E4FBED5401FFEDC313FDEF6009C2CA1211
:101FFA00216ED2CA8007C2CA12216EC2CA7F3C7E33
:0C200A000012217212216C0BEBB408D6FE
:0120160022A7
:10209500E4FDFBD2CAEDC313FDC2CA7F011221675D
:1020A50030CA06ED4480FD80007F3C1221670BEBB2
:0520B500B408E2AF05D4
:0120BA002203
:101AD000E4FBFA122044EF7007FFFE7D507C4122A8
:101AE0001220447FCC121FE87F44121FE87FE87E5B
:101AF000031221721220447FCC121FE87FBE121FF6
:101B0000E8122095AA07122095AB07EFFEEAFFC363
:101B1000EE648094885007E490026BF0801BC3EE63
:101B200064809488401390026B7401F0EFF4FFEE30
:101B3000F4FEEF2401FFE43EFEAD07AC06EC12021A
:101B400006E4FBFA7920783F1200FBE4FBFAF9780F
:041B50003F12000A36
:011B5400226E
:10086B00000000000000000000000000000000007D
:10087B00000000000000000000000000000000006D
:10088B00000000000000000000000000000000005D
:10089B00000000000000000000000000000000004D
:1008AB00000000000000000000000000000000003D
:1008BB00000000000000000000000000000000002D
:1008CB00000000000000000000000000000000001D
:1008DB00000000000000000000000000000000000D
:1008EB0000000000000000000000000000000000FD
:1008FB0000000000000000000000000000000000ED
:10090B0000000000000000000000000000000000DC
:10091B0000000000000000000000000000000000CC
:10092B0000000000000000000000000000000000BC
:10093B0000000000000000000000000000000000AC
:10094B00000000000000000000000000000000009C
:10095B00000000000000000000000000000000008C
:10096B00000000000000000000000000000000007C
:10097B00000000000000000000000000000000006C
:10098B00000000000000000000000000000000005C
:10099B00000000000000000000000000000000004C
:1009AB00000000000000000000000000000000003C
:1009BB00000000000000000000000000000000002C
:1009CB00000000000000000000000000000000001C
:1009DB00000000000000000000000000000000000C
:1009EB0000000000000000000000000000000000FC
:1009FB0000000000000000000000000000000000EC
:100A0B0000000000000000000000000000000000DB
:100A1B0000000000000000000000000000000000CB
:100A2B0000000000000000000000000000000000BB
:100A3B0000000000000000000000000000000000AB
:100A4B00000000000000000000000000000000009B
:100A5B00000000000000000000000000000000008B
:0421FD0075C78322FD
:0A21F300E4F5C775C3FF75C4FF22B1
:10219900AD07AC0675C501ECF5C3EDF5C475C65AB6
:0621A90075C6A5AFC222BD
:10218100AB07AA0675C502EAF5C3EBF5C4AF058F27
:08219100C275C65A75C6A522ED
:1021AF00AD07AC0675C503ECF5C3EDF5C475C65A9E
:0421BF0075C6A5221A
:08137A00900000EEF0A3EFF07B
:1013820078027C007D017BFF7A08796B7E027F0008
:10139200120390900000E0FCA3E0FDECC31325E0F3
:1013A200900202F0A3E4F0EC5401AF05AB07FAE4BB
:1013B200A3F0A3F0900204E0FEA3E0FFC3EE9402C8
:1013C2005031900203E02FFF900202E03EFE122114
:1013D20099900204E0FCA3E02402F58274003CF53B
:1013E20083EFF0900205E004F070C9900204E0047B
:1013F200F080C1900202E0FEA3E0FF1221AF74026E
:101402002BF58274003AF58374FFF0E4900204F045
:10141200A3F0900204E0FCA3E0FD900203E02DFFA4
:10142200900202E03CFE74022DF58274003CF583CA
:10143200E0FD122181900205E004F07006900204A2
:0C144200E004F0C3900204E0940240C6F5
:01144E00227B
:100A6B00CEC2CAAAB6C8B2E2C1BFD2C700B2E2C1F7
:100A7B00BFCEC2CAAAB6C800B1A8BEAFD6B5C9E828
:100A8B00B6A80056657220312E3000CAAAB6C83AF5
:100A9B0000CEC2B6C8313A00CEC2B6C8323A00B5A3
:100AAB00CD00B8DF00D5FD00C9E8B6A8CEC2CAAAF2
:100ABB00B6C8D6B500CAAAB6C8B8DF00CEC2B6C88B
:100ACB00B8DF00CAAAB6C8B5CD00CEC2B6C8B5CD80
:100ADB0000D1A1D4F1D6B500CEC2CAAAB6C8B1A86E
:100AEB00BEAFD6B500D1A1D4F1CAAAB6C800D1A168
:100AFB00D4F1CEC2B6C800CAAAB6C8C9CFCFDE00E1
:100B0B00C9E8B6A8D6D000C9E8B6A8CDEAB3C900E3
:100B1B00CEC2B6C8C9CFCFDE00CAAAB6C8CFC2CF25
:100B2B00DE00CEC2B6C8CFC2CFDE00A1E6002500E4
:100B3B00F8FC84840402020705D7D4D43414140CB3
:100B4B000000000001030202020202030000000089
:100B5B000000010200FF1E020100010300FF1E47FF
:100B6B000202020D00FF0D290303040500FF150F00
:100B7B000403040700FF15B80505060903FF1BCE88
:100B8B000605060A03FF1C3F0707080B04FF18A8FE
:100B9B000807080C04FF19330909090905FF11920D
:100BAB000A0A0A0A06FF0FA80B0B0B0B07FF12868C
:100BBB000C0C0C0C08FF109D0D0D0D0302FF1661A4
:050BCB003030302E3037
:10211C00420267000041026B00410262004102561C
:05212C00004102550016
:101D72007FC87E001220F7122201C284C290121D77
:101D820013121FB61216F812144F900256EFF0906B
:101D92000255E075F008A42460F582E4340BF58363
:101DA200E493FB740193FA740293F990025FEBF0EF
:0B1DB200A3EAF0A3E9F01204F880CCD3
:1020F700D3EF9400EE940040147D907C01ED1D70A9
:0D210700011CED4C70F7EF1F70E61E80E329
:0121140022A8
:0421D2007FE87E0321
:0821D600D2901220F7C2902202
:0B21DE00900207EEF0A3EFF0B28422A5
:0422010043920122E1
:1016F8001221FDE4FFFE122199EF3395E090026973
:10170800F0A3EFF07F017E00122199EF3395E0906E
:10171800026EF0A3EFF07F027E00122199EF33955D
:10172800E090026CF0A3EFF07F037E00122199EFA6
:101738003395E0900270F0A3EFF0900269E0700337
:10174800A3E0F47008900269F0A37428F090026E88
:10175800E0FEA3E0FFF44E7008900269F0A374283D
:10176800F090026CE07003A3E0F4700890026CF053
:10177800A37428F0EFF44E7008900270F0A3742858
:04178800F00221F357
:051F1000CFF0A3EFF08B
:101F15001221FDE4FFFE1221AF90026AE0FDE4FF0D
:101F2500FE12218190026FE0FD7F017E001221816A
:101F350090026DE0FD7F027E00122181900271E02A
:0B1F4500FD7F037E001221810221F3CA
:10144F00E4900206F030830C308209308106308040
:10145F00030215097F0A7E001220F72083209002D5
:10146F0055E075F008A4245CF582E4340BF583E4B1
:10147F0093900255F03083FD900206740AF020829B
:10148F0020900255E075F008A4245DF582E4340B3A
:10149F00F583E493900255F03082FD900206740BB1
:1014AF00F0208120900255E075F008A4245EF582AB
:1014BF00E4340BF583E493900255F03081FD9002F4
:1014CF0006740CF0208020900255E075F008A424DB
:1014DF005FF582E4340BF583E493900255F030808E
:1014EF00FD900206740DF07F647E001221D67F14EA
:0F14FF007E001221DE121FB68000900206E0FF71
:01150E0022BA
:101E02007BFF7A0A796B7D107F011205537BFF7A83
:101E12000B793B7D017C007F037E0012178C7BFFD8
:101E22007A0A79787D167F031205537BFF7A0A7945
:101E3200837D167F051205537BFF7A0A798E7D48D2
:051E42007F07020553BB
:101E47007BFF7A0A796B7D107F011205537BFF7A3E
:101E57000B793B7D017C007F057E0012178C7BFF91
:101E67007A0A79787D167F031205537BFF7A0A7900
:101E7700837D167F051205537BFF7A0A798E7D488D
:051E87007F0702055376
:100D29007BFF7A0A796B7D107F011205537BFF7A6D
:100D39000A79967D017F031205537BFF7A0A799C14
:100D49007D017F051205537BFF7A0A79A37D017F17
:100D590007120553121AD012023F900267EEF0A350
:100D6900EFF090020B7401F07B307D07120C00123A
:100D79001A48900263E0FEA3E0FF90020B7402F0B0
:100D89007B307D03120C00900265E0FEA3E0FF902A
:100D9900020B7401F07B307D05120C0090026EE0AD
:100DA900FEA3E0FF7C007D0A12041EC3900264E0EA
:100DB9009FEE6480F8900263E0648098500D1221E0
:100DC900D2C2967BFF7A0A79AA8037900269E0FE3F
:100DD900A3E0FF7C007D0A12041ED3900264E09F09
:100DE900EE6480F8900263E0648098400D1221D28D
:100DF900C2957BFF7A0A79AD8008D2957BFF7A0A82
:100E090079B07D687F03120553900270E0FEA3E07C
:100E1900FF7C007D0A12041EC3900268E09FEE6405
:100E290080F8900267E0648098500D1221D2C2B216
:100E39007BFF7A0A79AA803790026CE0FEA3E0FF73
:100E49007C007D0A12041ED3900268E09FEE648044
:100E5900F8900267E0648098400D1221D2C2977B16
:100E6900FF7A0A79AD8008D2977BFF7A0A79B07D3B
:070E7900687F0712055322F8
:10150F007BFF7A0A79B37D107F011205537BFF7A37
:10151F000B793B7D017C007F037E0012178C7BFFD4
:10152F007A0A79C07D127F031205537BFF7A0A79FD
:10153F00C77D527F031205537BFF7A0A79CE7D1246
:10154F007F051205537BFF7A0A79D57D527F0512ED
:10155F0005537BFF7A0A79DC7D017F071205537BE8
:10156F00FF7A0A798E7D487F07120553900269E052
:10157F00FFA3E0900257CFF0A3EFF090026EE0FFD1
:10158F00A3E090025BCFF0A3EFF090026CE0FFA31B
:10159F00E0900259CFF0A3EFF0900270E0FFA3E0CC
:0915AF0090025DCFF0A3EFF022E1
:1015B8007BFF7A0A79B37D107F011205537BFF7A8E
:1015C8000B793B7D017C007F057E0012178C7BFF29
:1015D8007A0A79C07D127F031205537BFF7A0A7954
:1015E800C77D527F031205537BFF7A0A79CE7D129D
:1015F8007F051205537BFF7A0A79D57D527F051244
:1016080005537BFF7A0A79DC7D017F071205537B3E
:10161800FF7A0A798E7D487F07120553900269E0A8
:10162800FFA3E0900257CFF0A3EFF090026EE0FF27
:10163800A3E090025BCFF0A3EFF090026CE0FFA371
:10164800E0900259CFF0A3EFF0900270E0FFA3E022
:0916580090025DCFF0A3EFF02237
:101661007BFF7A0A79E37D107F011205537BFF7AB4
:101671000A79AD7D167F031205537BFF7A0A79AA99
:101681007D5B7F03120553900269E0FEA3E0FF7CBE
:10169100007D0A12041E90020B7402F07B047D058A
:1016A100120C0090026EE0FEA3E0FF7C007D0A12A6
:1016B100041E90020B7402F07B4A7D05120C00900F
:1016C100026CE0FEA3E0FF7C007D0A12041E900282
:1016D1000B7401F07B047D07120C00900270E0FE98
:1016E100A3E0FF7C007D0A12041E90020B7401F03E
:0716F1007B4A7D07020C009B
:101BCE007BFF7A0A79B37D107F011205537BFF7A72
:101BDE000B793B7D017C007F037E0012178C7BFF0F
:101BEE007A0A79C07D127F031205537BFF7A0A7938
:101BFE00C77D127F051205537BFF7A0A79F07D01AE
:101C0E007F071205537BFF7A0A798E7D487F071274
:101C1E000553120BD0900259E0FEA3E0FF7C007D2D
:101C2E000A12041E90020B7401F07B417D05020C1A
:011C3E0000A5
:101C3F007BFF7A0A79B37D107F011205537BFF7A00
:101C4F000B793B7D017C007F057E0012178C7BFF9B
:101C5F007A0A79C07D127F031205537BFF7A0A79C6
:101C6F00C77D127F051205537BFF7A0A79F97D0133
:101C7F007F071205537BFF7A0A798E7D487F071203
:101C8F000553120BD0900259E0FEA3E0FF7C007DBC
:101C9F000A12041E90020B7401F07B417D05020CA9
:011CAF000034
:101192007BFF7A0A79B37D107F011205537BFF7AB8
:1011A2000B793B7D017C007F037E0012178C7BFF55
:1011B2007A0A79C07D127F031205537BFF7A0A797E
:1011C200C77D127F051205537BFF7A0B79027D01E1
:1011D2007F071205537BFF7A0A798E7D487F0712BB
:1011E2000553900256E024F5602E146056240270D6
:1011F2006C900258E004F07006900257E004F0D3BD
:10120200900258E09450900257E064809480402B02
:10121200E4F0A37414F08023900258E024FFF090CD
:101222000257E034FFF0C3A3E09414900257E06445
:101232008094805006E4F0A37450F07BFF7A0B791F
:101242000B8013900257E0FFA3E0900269121F1077
:101252007BFF7A0B79127D017F07120553900257AB
:10126200E0FEA3E0FF120BEF900259E0FEA3E0FFC5
:101272007C007D0A12041E90020B7401F07B417DFA
:0412820005020C0055
:100FA8007BFF7A0A79B37D107F011205537BFF7AA4
:100FB8000B793B7D017C007F057E0012178C7BFF3F
:100FC8007A0A79C07D127F031205537BFF7A0A796A
:100FD800C77D127F051205537BFF7A0B791B7D01B4
:100FE8007F071205537BFF7A0A798E7D487F0712A7
:100FF8000553900256E024F5602F146057240270C0
:101008006D90025AE004F07006900259E004F0D3A3
:1010180090025AE0947D900259E064809480402CBC
:1010280074FFF0A374C9F0802390025AE024FFF003
:10103800900259E034FFF0C3A3E094C9900259E04C
:101048006480947F5006E4F0A3747DF07BFF7A0BF4
:10105800790B8013900259E0FFA3E090026C121FF5
:10106800107BFF7A0B79127D017F071205539002DE
:1010780057E0FEA3E0FF120BEF900259E0FEA3E059
:10108800FF7C007D0A12041E90020B7401F07B4164
:051098007D05020C00C3
:1018A8007BFF7A0A79B37D107F011205537BFF7A9B
:1018B8000B793B7D017C007F037E0012178C7BFF38
:1018C8007A0A79CE7D127F031205537BFF7A0A7953
:1018D800D57D127F051205537BFF7A0A79F07D01C9
:1018E8007F071205537BFF7A0A798E7D487F07129E
:1018F800055390026EE0FEA3E0FF90025BEEF0A3BA
:10190800EFF0900270E0FDA3E090025D120BEA9008
:10191800025DE0FEA3E0FF7C007D0A12041E900237
:0B1928000B7401F07B417D05020C00F8
:101933007BFF7A0A79B37D107F011205537BFF7A0F
:101943000B793B7D017C007F057E0012178C7BFFAA
:101953007A0A79CE7D127F031205537BFF7A0A79C7
:10196300D57D127F051205537BFF7A0A79F97D0134
:101973007F071205537BFF7A0A798E7D487F071212
:10198300055390026EE0FEA3E0FF90025BEEF0A32E
:10199300EFF0900270E0FDA3E090025D120BEA907D
:1019A300025DE0FEA3E0FF7C007D0A12041E9002AC
:0B19B3000B7401F07B417D05020C006D
:101286007BFF7A0A79B37D107F011205537BFF7AC3
:101296000B793B7D017C007F037E0012178C7BFF60
:1012A6007A0A79CE7D127F031205537BFF7A0A797B
:1012B600D57D127F051205537BFF7A0B79247D01BC
:1012C6007F071205537BFF7A0A798E7D487F0712C6
:1012D6000553900256E024F5602E146056240270E1
:1012E6006C90025CE004F0700690025BE004F0D3C0
:1012F60090025CE0945090025BE064809480402B06
:10130600E4F0A37414F0802390025CE024FFF090D4
:10131600025BE034FFF0C3A3E0941490025BE06448
:101326008094805006E4F0A37450F07BFF7A0B792A
:101336000B801390025BE0FFA3E090026E121F1079
:101346007BFF7A0B79127D017F0712055390025BB2
:10135600E0FEA3E0FF120BEF90025DE0FEA3E0FFCC
:101366007C007D0A12041E90020B7401F07B417D05
:0413760005020C0060
:10109D007BFF7A0A79B37D107F011205537BFF7AAE
:1010AD000B793B7D017C007F057E0012178C7BFF49
:1010BD007A0A79CE7D127F031205537BFF7A0A7966
:1010CD00D57D127F051205537BFF7A0B792D7D019E
:1010DD007F071205537BFF7A0A798E7D487F0712B1
:1010ED000553900256E024F5602F146057240270CA
:1010FD006D90025EE004F0700690025DE004F0D3A6
:10110D0090025EE0947D90025DE064809480402CBE
:10111D0074FFF0A374C9F0802390025EE024FFF009
:10112D0090025DE034FFF0C3A3E094C990025DE04E
:10113D006480947F5006E4F0A3747DF07BFF7A0BFE
:10114D00790B801390025DE0FFA3E0900270121FF7
:10115D00107BFF7A0B79127D017F071205539002E8
:10116D005BE0FEA3E0FF120BEF90025DE0FEA3E05B
:10117D00FF7C007D0A12041E90020B7401F07B416E
:05118D007D05020C00CD
:100BD000900269E0FEA3E0FF900257EEF0A3EFF071
:100BE00090026CE0FDA3E0900259CDF0A3EDF07C03
:100BF000007D0A12041E90020B7402F07B417D03FB
:0E0C0000900207EEF0A3EFF0A3EDF0A3EBF0EF
:100C0E00780C7C027D017BFF7A0B79CB7E007F0511
:100C1E0012039090026BE07010900207E0FAA3E0CE
:100C2E00FBC3EA64809480502790020C742DF090E0
:100C3E000207E0FEA3E0FFC3EE6480948050237CA5
:100C4E00FF7DFF12041E900207EEF0A3EFF080125C
:100C5E007C037DE8AF03AE02120430EF2430900225
:100C6E000CF0E490026BF0900207E0FEA3E0FF7C34
:100C7E00037DE8120430AA04AB057D647C00AF034B
:100C8E00AE02120430EF243090020DF07D647C0031
:100C9E00AF03AE021204307E007F0ACFCDCFCECC92
:100CAE00CE120430EF2430A3F0900207E0FEA3E052
:100CBE00FF7C007D641204307E007F64CFCDCFCEEA
:100CCE00CCCE1204307E007F0ACFCDCFCECCCE124A
:100CDE000430ED2430900210F0900209E0FFA3E002
:100CEE00FD7B017A02790C12055390020BE024FE73
:100CFE006015047025900209E0FFA3E02428FD7B17
:100D0E00FF7A0B79368010900209E0FFA3E02428C9
:0A0D1E00FD7BFF7A0B7939120553B3
:010D280022A8
:100003000202ABE86480F8E933E83360110460F07E
:10001300ED33EC337009E8FCE9FDEAFEEBFF220463
:1000230060DED3EB9FEA9EE99DE8C2E78CF0C2F75E
:1000330095F0400CE8CCF8E9CDF9EACEFAEBCFFB2A
:1000430012027685D0F05804700320D5B3E804700B
:10005300075002B2D50202B592D5EC0460F7E4CCA6
:10006300C0E0C398F8603B94186008400DD0E0FBF3
:1000730002028DE4FBFAC9FC8028E830E406E4C9F7
:10008300FBE4CAFCE830E305E4C9CACBFCE8540747
:100093006010F8C3E913F9EA13FAEB13FBEC13FC52
:1000A300D8F130F52FC3E49CFCEF9BFFEE9AFEEDF5
:1000B30099FDD0E0FBEF4E4D4C701222DB030202A0
:1000C300B2EC2CFCEF33FFEE33FEED33FDED30E706
:1000D300EB02028DEF2BFFEE3AFEED39FDD0E0FB94
:1000E30050130BBB00030202B5ED13FDEE13FEEF3D
:0800F30013FFEC13FC02028D67
:1000FB00EC4D6011E8497017ED33EC3304600DE4FF
:10010B00FCFFFEFD22E933E8330470F80202AB1268
:10011B00027658046009E4CC248150062850090269
:10012B0002B52840030202B2C0E0EB4A7044B9802A
:10013B0006D0E0FB0202A1EF4E701CBD8008EBFF66
:10014B00EAFEE9FD80EBE98DF0A4FEE5F00201E4A7
:10015B00E9CDF9EAFEEBFFEF89F0A4FCE5F0CE89DF
:10016B00F0A42EFFE435F0CD89F0A42DFEE435F09C
:10017B008067EF4E7005BD80D780C3EF8BF0A4ACCA
:10018B00F0EE8BF0A42CFCE435F0F8EF8AF0A42C05
:10019B00E5F038FCE433CB8DF0A42CFCE5F03BF818
:1001AB00EE8AF0A42CFCE5F038F8E433CF89F0A408
:1001BB002CFCE5F038CF3400CE89F0A42FFFE5F00E
:1001CB003EFEE433C98DF0A42EFEE5F039CD8AF066
:1001DB00A42FFFE5F03EFEE43DFD33D0E0FB5007DE
:1001EB000BBB000F0202B5EC2CFCEF33FFEE33FE22
:0601FB00ED33FD02028D50
:1002010075F020800E75F010800575F0087D007E78
:10021100007F003392D530D5031204CBEC3340106C
:10022100EF33FFEE33FEED33FDEC33FCD5F0ED2281
:0E023100E5F0247EA2D513CC92E7CDCEFF22BD
:10023F00EDD2E7CD33EC3392D524814006E4FFFEB7
:10024F00FDFC22FCE4CFCECDCC24E0501174FF8016
:10025F00EDC3CC13CCCD13CDCE13CECF13CF0470B3
:07026F00F030D5DE0204CBE4
:10027600E9D2E7C933E833F892D5EDD2E7CD33ECCE
:0702860033FC5002B2D52247
:10028D00EC30E7100FBF000C0EBE00080DBD0004D2
:10029D000BEB6014A2D5EB13FCED92E7FD2274FF7E
:1002AD00FCFDFEFF22E480F8A2D574FF13FC7D80D7
:0302BD00E480EFEB
:0300000002181CC7
:0C181C00787FE4F6D8FD758107021863A0
:1002C000E709F608DFFA8046E709F208DFFA803E20
:1002D00088828C83E709F0A3DFFA8032E309F6080D
:1002E000DFFA8078E309F208DFFA807088828C8375
:1002F000E309F0A3DFFA806489828A83E0A3F60829
:10030000DFFA805889828A83E0A3F208DFFA804C02
:1003100080D280FA80C680D4806980F280338010D9
:1003200080A680EA809A80A880DA80E280CA803342
:1003300089828A83ECFAE493A3C8C582C8CCC583BA
:10034000CCF0A3C8C582C8CCC583CCDFE9DEE7808A
:100350000D89828A83E493A3F608DFF9ECFAA9F009
:10036000EDFB2289828A83ECFAE0A3C8C582C8CC5F
:10037000C583CCF0A3C8C582C8CCC583CCDFEADE78
:10038000E880DB89828A83E493A3F208DFF980CCDA
:1003900088F0EF60010E4E60C388F0ED2402B404D3
:1003A0000050B9F582EB2402B4040050AF2323457A
:0603B0008223900310738C
:1003B600BB010689828A83E0225002E722BBFE0245
:0903C600E32289828A83E4932278
:1003CF00BB010CE58229F582E5833AF583E02250E3
:1003DF0006E92582F8E622BBFE06E92582F8E2222D
:0D03EF00E58229F582E5833AF583E4932247
:1003FC00F8BB010DE58229F582E5833AF583E8F037
:10040C00225006E92582C8F622BBFE05E92582C8E2
:02041C00F222CA
:10041E00EF8DF0A4A8F0CF8CF0A428CE8DF0A42EF2
:02042E00FE22AC
:10043000C2D5EC30E709B2D5E4C39DFDE49CFCEEE7
:1004400030E715B2D5E4C39FFFE49EFE1204FEC35D
:10045000E49DFDE49CFC80031204FE30D507C3E458
:060460009FFFE49EFE2256
:10046600C5F0F8A3E028F0C5F0F8E5821582700221
:060476001583E038F022BE
:10047C00E88FF0A4CC8BF0A42CFCE98EF0A42CFC1F
:10048C008AF0EDA42CFCEA8EF0A4CDA8F08BF0A49D
:10049C002DCC3825F0FDE98FF0A42CCD35F0FCEBFC
:1004AC008EF0A4FEA9F0EB8FF0A4CFC5F02ECD39C1
:0F04BC00FEE43CFCEAA42DCE35F0FDE43CFC222E
:0E04CB00C3E49FFFE49EFEE49DFDE49CFC2242
:1004D900E8600FECC313FCED13FDEE13FEEF13FF01
:0304E900D8F12225
:0C04EC00ECF0A3EDF0A3EEF0A3EFF02283
:0604F8008A838982E4738F
:10182800021D72E493A3F8E493A34003F68001F247
:1018380008DFF48029E493A3F85407240CC8C333C1
:10184800C4540F4420C8834004F456800146F6DF90
:10185800E4800B0102040810204080902115E47EEA
:10186800019360BCA3FF543F30E509541FFEE49385
:10187800A360010ECF54C025E060A840B8E493A34C
:10188800FAE493A3F8E493A3C8C582C8CAC583CA77
:10189800F0A3C8C582C8CAC583CADFE9DEE780BE2F
:0121310000AD
:1004FE00BC000BBE0029EF8DF084FFADF022E4CCE2
:10050E00F875F008EF2FFFEE33FEEC33FCEE9DECAA
:10051E00984005FCEE9DFE0FD5F0E9E4CEFD22EDF0
:10052E00F8F5F0EE8420D21CFEADF075F008EF2F3A
:10053E00FFED33FD4007985006D5F0F222C398FD2B
:05054E000FD5F0EA22C8
:00000001FF
